:020000041000EA
:10000000000002081B0100100D0000007D0100101F
:1000100000000000000000000000000000000000E0
:100020000000000000000000000000007901001046
:1000300000000000000000007901001079010010AC
:10004000B5010010F10100102D020010690200102E
:10005000A5020010E10200101D030010590300105A
:100060007901001079010010790100107901001068
:100070007901001079010010790100107901001058
:100080000448054B10B5834203D0044B002B00D02D
:10009000984710BD88080008880800080000000084
:1000A00006480749091A8B10C90FC91810B549101D
:1000B00003D0044B002B00D0984710BD88080008DF
:1000C000880800080000000010B5074C2378002BBA
:1000D00009D1FFF7D5FF054B002B02D0044800E003
:1000E00000BF0123237010BDC00E000800000000F7
:1000F000000F0010054B10B5002B03D00449054834
:1001000000E000BFFFF7CCFF10BDC04600000000BC
:10011000C40E0008000F00107047FFF7FDFF72B615
:100120000F4C104DAC4209DA21686268A368043BA9
:1001300002DBC858D050FAE70C34F3E70A490B4AFF
:100140000020521A02DD043A8850FCDC08480949B4
:100150000860BFF34F8F00F047F900F01DF8FEE78D
:100160000C0F0010240F0010C00E0008140F000820
:100170000008000808ED00E0FEE7FEE700B50420F7
:100180007146084202D0EFF3098002E0EFF30880E5
:10019000043000F0A9FBFEE710B562B6034800F09A
:1001A0008FF9002000F016FCFBE7C04600000810A5
:1001B000FEE700000B4B10B51B681A6888235B0133
:1001C000D158002907DAD358074A9B051B0D9B58C5
:1001D000002B00D09847C0230121044A5B00D15076
:1001E00010BDC046DC0E0008A408000800E100E0D5
:1001F0000A4B10B51B681A68094BD158002907DA59
:10020000D358084A9B051B0D9B58002B00D09847DC
:10021000C0230221044A5B00D15010BDDC0E00084F
:1002200004110000A408000800E100E00A4B10B52A
:100230001B681A68094BD158002907DAD358084AB5
:100240009B051B0D9B58002B00D09847C023042111
:10025000044A5B00D15010BDDC0E000808110000FC
:10026000A408000800E100E00A4B10B51B681A68FA
:10027000094BD158002907DAD358084A9B051B0DB2
:100280009B58002B00D09847C0230821044A5B00EC
:10029000D15010BDDC0E00080C110000A4080008AD
:1002A00000E100E00A4B10B51B681A68094BD158F1
:1002B000002907DAD358084A9B051B0D9B58002BD1
:1002C00000D09847C0231021044A5B00D15010BDD4
:1002D000DC0E000810110000A408000800E100E096
:1002E0000A4B10B51B681A68094BD158002907DA68
:1002F000D358084A9B051B0D9B58002B00D09847EC
:10030000C0232021044A5B00D15010BDDC0E000840
:1003100014110000A408000800E100E00A4B10B529
:100320001B681A68094BD158002907DAD358084AC4
:100330009B051B0D9B58002B00D09847C0234021E4
:10034000044A5B00D15010BDDC0E000818110000FB
:10035000A408000800E100E00A4B10B51B681A6809
:10036000094BD158002907DAD358084A9B051B0DC1
:100370009B58002B00D09847C0238021044A5B0083
:10038000D15010BDDC0E00081C110000A4080008AC
:1003900000E100E07047000070B5002000F068FA4E
:1003A0000D4C206000F093FA6060002000F060FACD
:1003B00065680A4BA0600A49E81800F05DFBFA2165
:1003C000084B20738900E81800F056FB20610020DC
:1003D00000F04EFA606170BD880800083F420F00CF
:1003E00040420F00E703000098211E4B49015A5874
:1003F0001D4810B502405A5080315A58FF2402401F
:100400005A504021194B0A681A64442212685A64EF
:10041000C022174B92009858A04301439950995815
:1004200014480140995001221A6092181A6012482B
:1004300000F07EF800F012FB104A13685B005B08C6
:100440001360FFF7A7FFFFF7A7FF802100230C4AE7
:100450000C4CFF319800013314508B42FAD10A4BF7
:100460009A6110BD00002040FFFFF7FF0008000860
:1004700000E100E0FF00FFFF400E001000C026403A
:10048000A4080008B10100108808000810B59024E5
:1004900000F047F8074B64011959074A1140074A11
:1004A0000A431A51102259681142FCD000F03DF85D
:1004B00010BDC04600002040FCFF00000100FA050E
:1004C000F8B590260E4C7601070000F02AF8A359E3
:1004D0000500DB439B0701D1FFF7D8FF80239B007A
:1004E000E750A259074B1A40074B1343A35110235F
:1004F00062681A42FCD0280000F017F8F8BDC04628
:1005000000002040FCFF00000300FA05000000008E
:100510000230800803D001300238FCD1C046C0460A
:100520007047EFF3108072B6704780F31088704701
:10053000014B18607047C046DC0E0008054B1B6875
:100540001A0088321B6812689B181868000AC0B22B
:100550007047C046DC0E0008044B1B681A00883246
:100560001B6812689B181868000E7047DC0E0008A4
:100570009223DB00C018034B8000C0588006800F18
:100580007047C0460000264003000020022B08D818
:100590009222D2009B18034A9B009B5801301B0AF1
:1005A0009843704700002640024B18694007C00F6F
:1005B0007047C04600002740044B054AD05803232B
:1005C0001840984200D102207047C0462415000010
:1005D0000000264010B5FFF7EFFF0023022801D1ED
:1005E000014B1B68180010BDE40E0008084A830088
:1005F000991890225201885807221040042806D1E9
:10060000044AFC309B181F225B6813401843704754
:1006100000002640FC00264010B5FFF7E7FF8823C6
:100620005B0098421FD00BD8012812D0022813D0AB
:10063000431E98410E4B404218400E4BC01810BD4F
:100640001223FF3398420AD0033398420BD0002084
:10065000F5E7094B1868F2E7FFF7BCFFEFE7FFF794
:10066000A3FFC003EBE7054A054BD058C00FF8E7DE
:1006700000EE85FF00127A00E00E00080000264020
:1006800008150000144A154B10B5D3580F249903D0
:10069000DB01DB0F890BC371114B0160D358D90407
:1006A0001B0CDBB203810F4BC90CD358818019009E
:1006B0002140817219092140C172D9029B009B0F10
:1006C0008373094BC90CD35881815A05DB01520F42
:1006D000DB0D8271038210BD000026403015000042
:1006E00034150000381500003C150000F0B5002658
:1006F00089B003AD14220021280000F08DFB2800F2
:10070000FFF7C0FF164A174BD358B34224DAAB7B2E
:10071000022B21D0AC88B4421ED03000ED79039F6B
:10072000FFF77AFF2200330031000190681C00F0CF
:100730004FFA0C00050033003A003100019800F038
:1007400047FAE6076A0832436308801859412A00CD
:10075000230000F01DFA0600300009B0F0BDC046CD
:10076000000026403015000070B50C00050018226E
:100770000021200000F050FBB0237F221F21DB006E
:10078000ED18094BAD00EB5800201A4022701A0AF0
:100790000A4062701A0C0A40A2701A01CA409B00FB
:1007A0009B0FE270237170BD00002640F0B504007D
:1007B00089B01822002102A800F02EFB200002A917
:1007C000FFF7D2FFB0230026DB00194AE3189B0095
:1007D0009B58B34229DA02AB1B79022B25D002AB1E
:1007E0005D78B54221D09F78B7421ED01B78601C3F
:1007F0000093FFF711FF33003A0031000190280009
:1008000000F0E6F90C00050033003100009A019871
:1008100000F0DEF9E6076A083243630880185941A0
:100820002A00230000F0B4F90600300009B0F0BD42
:100830000000264010B50400FFF7EEFE002C07D1A3
:10084000094A0A4BD358002B01DAFFF74FFF10BDBE
:10085000012CFCD1B023044A5B01D358002BF6DAFB
:100860000020FFF7A3FFF2E700002640301500004C
:1008700070B50600FFF77CFE9223DB000B4AF318ED
:100880009B00040098580F231840FFF7D3FF050082
:100890003000FFF779FE002805D10130A040400864
:1008A0004019E04070BD0248FCE7C0460000264009
:1008B00000127A0010B50020FFF7DAFF0400FFF7FE
:1008C0004BFE411C4808001900F0D6F810BD10B5C9
:1008D000FFF7F0FF0400FFF731FE411C4808001944
:1008E00000F0CAF810BDFEE702680A4B10B51A60A6
:1008F00042685A6082689A60C268DA6002691A6166
:1009000042695A6182699A61C269DA61FFF7EBFF55
:1009100010BDC046A00E0008254B73B586000D0023
:10092000F458042901D0012925D100200EE0A36844
:100930002B420AD1E36829001A685B686846019374
:100940000092236898471B4B1C606469002C0AD0F6
:10095000194B9842EBD1012DE9D1164A174B126879
:1009600015489A5176BD012DFCD1134B9842F4D015
:10097000124B9C51F6E7022914D026006469002C22
:10098000FBD10020002EEDD0B3682B4208D1F368D4
:1009900029001A685B68684601930092336898479B
:1009A0003669EFE7034B1B68181EDBD01E69E8E7CA
:1009B000000F0008FC0E0008FF004200E80E0008CF
:1009C0008023034A5B01D0588006C00F7047C046A1
:1009D0000000264070B50600FFF7F2FF002834D073
:1009E0001B4D6B68002B15D1FFF79BFD6B68040056
:1009F000002B1DD10423174A11690B431361012EEB
:100A00001BD030BF2000FFF790FD6C68002C16D182
:100A1000200070BD01210800FFF77EFF041EE3D017
:100A20006B68002BF4D002210120FFF775FFEFE780
:100A300004210120FFF770FFDCE720BFE2E7082177
:100A40000120FFF769FF0024E2E7034CE0E7C0461E
:100A5000000F000800ED00E0FF0042000322054BFC
:100A6000196C9143023A0A431A640222196C0A4330
:100A70001A64704700C02640002243088B4274D39A
:100A800003098B425FD3030A8B4244D3030B8B428F
:100A900028D3030C8B420DD3FF22090212BA030C98
:100AA0008B4202D31212090265D0030B8B4219D379
:100AB00000E0090AC30B8B4201D3CB03C01A524199
:100AC000830B8B4201D38B03C01A5241430B8B42E1
:100AD00001D34B03C01A5241030B8B4201D30B03CA
:100AE000C01A5241C30A8B4201D3CB02C01A5241F1
:100AF000830A8B4201D38B02C01A5241430A8B42B4
:100B000001D34B02C01A5241030A8B4201D30B029C
:100B1000C01A5241CDD2C3098B4201D3CB01C01AB6
:100B2000524183098B4201D38B01C01A52414309C0
:100B30008B4201D34B01C01A524103098B4201D3AE
:100B40000B01C01A5241C3088B4201D3CB00C01A1B
:100B5000524183088B4201D38B00C01A5241430893
:100B60008B4201D34B00C01A5241411A00D20146B8
:100B7000524110467047FFE701B5002000F006F82B
:100B800002BDC0460029F7D076E770477047C046DF
:100B9000002B11D1002A0FD1002900D1002802D04A
:100BA0000021C943080007B4024802A1401802907E
:100BB00003BDC046D9FFFFFF03B4684601B50298E4
:100BC00000F034F8019B9E4602B00CBC7047C04652
:100BD000F0B5CE469946030C9C46130447461B0CC1
:100BE0001D000E0061460404240C80B50700100CA3
:100BF0004B436543414360432C0CC01820188C467E
:100C0000834203D980235B029846C4444946794312
:100C10005643030C2D042D0C89196344000440191C
:100C2000C918C0BCB946B046F0BDC046F0B557467D
:100C30004E464546DE46E0B504000D009246994614
:100C400083B08B4230D82DD04946504600F0D8F8BA
:100C500029000600200000F0D3F8331A9846203B04
:100C600034D49B4653465A46934042461F0053464F
:100C700093401E00AF423BD8AF4200D179E05B46C3
:100C8000A41BBD41002B00DA76E000220023009275
:100C9000019301235A469340019301234246934016
:100CA000009329E08242CFD90022002300920193D1
:100CB0000C9B002B01D01C605D600098019903B073
:100CC000F0BCBB46B246A946A046F0BD42469B4694
:100CD00020239B1A5246DA40414613004A468A4076
:100CE000170042461F43534693401E00AF42C3D9EC
:100CF00000220023009201934346002BD8D0FB072B
:100D000072081A4346467B080EE0AB4201D1A2426C
:100D10000CD8A41A9D41012024196D410021013EE7
:100D200024184D41002E06D0AB42EED9013E2419C5
:100D30006D41002EF8D1009801995B460019694178
:100D4000002B24DB2B005A464446D3402A00E240C5
:100D50001C005B461500002B2ADB26009E4033005A
:100D600026004746BE403200801A9941009001910A
:100D70009EE7A342BCD882E74246202300219B1A6B
:100D80000022009101920122DA40019285E7424659
:100D900020239B1A2A0046469A402300F3404446EB
:100DA00013432A00E2401C005B461500002BD4DAF6
:100DB00042462F002023260097409B1ADE403B002E
:100DC0003343CDE71C2101231B04984201D3000CBF
:100DD00010391B0A984201D3000A08391B099842AE
:100DE00001D30009043902A2105C40187047C046C4
:100DF00004030202010101010000000000000000E4
:100E000010B5002903D1FFF7DDFF203002E0080014
:100E1000FFF7D8FF10BDC04603008218934200D1EF
:100E2000704719700133F9E7F8B5C046F8BC08BC43
:100E30009E467047F8B5C046F8BC08BC9E46704751
:100E4000000020400000244000000040000000009E
:100E5000000023400000304000003140000090407E
:100E60000000224000001040000090402020202080
:100E700020302008085C2C8000002E00FF030401B5
:100E800003007C00400000007FFE00000004000022
:100E9000000000000019324B647D07020200008050
:100EA0004000080B100000000000FF012002001F9E
:100EB00000800004FF081018001000140018001C27
:100EC0004044484C5000000008100000080000009A
:100ED00004000000041000000012000004210000C3
:100EE000002100000016000040114002C41300134E
:100EF0008013A01340138813A81320001C000000C7
:100F00000000000028FDFF7F01000000000000102D
:100F100000080008800000002C0F00108008000866
:100F200008000000C00E000854000000F50000108A
:040F3000C9000010E4
:020000041008E2
:1000000000F80708110108100D0000008501081014
:100010008501081085010810850108100000000006
:100020000000000000000000000000008101081036
:1000300081010810000000008101081081010810F2
:10004000ED010810F7010810010208100B0208105A
:10005000150208101F0208102902081033020810A8
:100060008101081081010810810108108101081028
:100070008101081081010810810108108101081018
:100080000348044B834202D0034B03B11847704727
:10009000AC000208AC000208000000000548064B56
:1000A0001B1AD90F01EBA301491002D0034B03B176
:1000B00018477047AC000208AC00020800000000BE
:1000C00010B5064C237843B9FFF7DAFF044B13B1A0
:1000D0000448AFF300800123237010BDC807020855
:1000E000000000006822081008B5054B1BB1054947
:1000F0000548AFF30080BDE80840FFF7CFBF00BF61
:1001000000000000CC070208682208107047704702
:10011000FFF7FCFF72B6144C144DAC4209DA2168AB
:100120006268A368043BA2BFC858D050FAE70C34F9
:10013000F3E70F490F4A00209142BCBF41F8040B7E
:10014000FAE70D480D490860BFF34F8F00F0C8F87B
:1001500000F0B8F8FFF7DBFF01F00CFE00F070FADA
:1001600001F02CFEFEE70000742208108C2208101B
:10017000C8070208C00802080000020808ED00E0F5
:10018000FEE7FEE700B504207146084202D0EFF317
:10019000098002E0EFF30880043001F03DFBFEE748
:1001A000FEE7000010B504460D4B1B681B6803F505
:1001B000807353F82020002A09DB04F01F02640931
:1001C000012393406034074A42F8243010BD53F8AD
:1001D0002030C3F30903044A52F823309847ECE770
:1001E0009808020800E100E0B000020808B500200D
:1001F000FFF7D8FF08BD08B50120FFF7D3FF08BD02
:1002000008B50220FFF7CEFF08BD08B50320FFF7B1
:10021000C9FF08BD08B50420FFF7C4FF08BD08B535
:100220000520FFF7BFFF08BD08B50620FFF7BAFF9E
:1002300008BD08B50720FFF7B5FF08BD002304E09F
:10024000054A064942F823100133B3F5BF7FF7DDB5
:10025000014BC3F8FC357047B0000208A10108103B
:100260007047000010B5002001F03EFA124CC4F8AF
:10027000000601F055FAC4F80406002001F034FA33
:10028000C4F80806D4F8043603F5742202F23F22BB
:100290000A49A1FB0212920C84F80C2603F2E73300
:1002A000074AA2FB03239B09C4F81036002001F083
:1002B0001BFAC4F8140610BDB000020883DE1B430D
:1002C000D34D621008B5054800F030FCFFF7C8FFB9
:1002D000FFF7C8FFFFF7B2FF08BD00BFA421081059
:1002E000EFF3108172B6074AD2F8883043F47003F6
:1002F000C2F88830BFF34F8FBFF36F8F81F3108840
:10030000704700BF00ED00E008B500F0D3F800F042
:1003100009F800F02FF808BD08B500F01FF800F04C
:1003200089F808BD08B50021084600F034FE3522E2
:100330000021084600F01CFE0021084600F024FEC3
:100340000321002000F027FE00220321104600F0C8
:100350000FFE0321002000F017FE08BD08B503487A
:1003600000F05AFA024800F057FA08BD001E0810C3
:10037000FC1D081010B5214A0021214800F0DCFBCB
:10038000204C214A0021204600F0D6FB1F4A0121C3
:10039000204600F0D1FB1E4A0221204600F0CCFB93
:1003A0001C4A0321204600F0C7FB04F580741A4A5A
:1003B0000421204600F0C0FB184A0521204600F029
:1003C000BBFB174A0621204600F0B6FB154A072161
:1003D000204600F0B1FBA4F51064134A002120462A
:1003E00000F0AAFB114A0121204600F0A5FB104AAB
:1003F0000321204600F0A0FB10BD00BF3C1E0810EA
:1004000080083140800A3140C41F0810FC1F0810CA
:10041000741E0810AC1E08108C1F0810E41E081073
:100420001C1F0810541F0810342008106C200810DE
:10043000041E081008B5124800F0EEF9114800F04B
:10044000EBF9114800F0E8F9104800F0E5F9104820
:1004500000F0E2F90F4800F0DFF90F4800F0DCF996
:100460000E4800F0D9F90E4800F0D6F90D4800F01A
:10047000D3F90D4800F0D0F90C4800F0CDF908BDD3
:10048000701E0810F81F081030200810A81E081051
:10049000E01E0810C01F0810181F0810501F081079
:1004A000881F081068200810A0200810381E0810A7
:1004B000FEE7000008B503220021084600F060FDB9
:1004C000B421002001F0FAF901F060FA00F014FF05
:1004D000002000F095FD002000F032FE01210020F8
:1004E00000F044FE012000F02BFE0121084600F040
:1004F0003DFE002000F066FD002000F081FD01209F
:1005000000F070FD0021012000F05EFE00210220BD
:1005100000F05AFE0021032000F056FE012108469B
:1005200000F088FD0021012000F0ACFD0021012039
:1005300000F0D2FD012001F001F90221084600F08F
:1005400079FD0021022000F09DFD0021022000F035
:10055000C3FD022001F0F2F8012000F023FD082184
:10056000002001F0ABF90021084600F02DFE1948EB
:1005700000F0F4FE30BB184800F09EFF30BB0021B5
:10058000084600F057FD0021084600F07BFD0021E1
:10059000084600F0A1FDFFF765FE104800F03CF9A9
:1005A00000B101BE0E4800F037F900B101BE0D48A0
:1005B00000F032F900B101BE0B4800F02DF900B196
:1005C00001BE08BD0420FFF773FFD4E70420FFF746
:1005D0006FFFD4E7A4200810400D0300B8200810D6
:1005E000BC200810C0200810C420081008B504481A
:1005F00001F0DAF908B1002008BD0248FCE700BFAD
:10060000800002080000020610B500F003F904465D
:1006100038B154B1FFF778FEFFF77EFE5CB120469B
:1006200010BD00F03DFA0446F3E740F6E441002037
:1006300000F066FAEEE7FFF7D9FF0446EFE70000A7
:1006400008B5FFF7E1FF00B101BE62B614E0C820B3
:1006500001F0BAF8144B0122C3F8842016E0124BC3
:100660000222C3F88420114BD3F8903013F0010F0D
:1006700017D0002001F0A8F80B4BD3F8903013F0FE
:10068000080FE4D0084B0122C3F88820074BD3F8A9
:10069000903013F0010FE2D0034B0222C3F8882000
:1006A000E1E7C820E6E700BF000231400008314022
:1006B0000230800803D001300238FCD100BF00BFF7
:1006C0007047EFF3108072B6704780F31088704760
:1006D00070B5042829D08E4611461D287ED80246C2
:1006E000404C34F81050441C1D2C22D8E4B23D4E2E
:1006F00036F814404FF0010C0CFA02FC3A4A0CEAAE
:100700000202002A63D0C21E182A39D8DFE802F09C
:1007100014383A3838162C383038383838383238B7
:1007200034383838383838362E004FF00C0E052063
:10073000D3E740F20A24DDE72C4A00E02C4A1C8073
:10074000002A46D0033818283DD8DFE800F01D3CC9
:100750003E3C3C1F1D3C343C3C3C3C3C363C383C25
:100760003C3C3C3C3C3A3200224AE8E7224AE6E77D
:10077000224AE4E7224AE2E7224AE0E7224ADEE7A9
:100780000022DCE7214ADAE7022600E00126B6452E
:100790001FD232F81E00284411FA80F119800EF1A0
:1007A0000101B14215DA8E4632F811402C44A4B250
:1007B0000FE00126EBE71826E9E70126E7E7012627
:1007C000E5E70326E3E70026E1E71A26DFE77544BD
:1007D0001D801B88A34203D2002070BD0C48FCE79B
:1007E0000B48FAE74C210810280B0A0CC820081007
:1007F00000210810042108104821081008210810C1
:10080000382108103C21081040210810CC20081085
:10081000000D020400207047F0B583B004460027A5
:10082000FFF74FFF06460DF10603A27861782078A6
:10083000FFF74EFF054668B9BDF80630C3F3C7029F
:1008400003F007031449895C012202FA03F31942F9
:1008500018BF174605B9EFB92DB13046FFF735FF80
:10086000284603B0F0BD0DF10603A2786178207828
:10087000FFF72EFF05460028EFD1BDF80630C3F381
:10088000C70103F00703044801229A40435C134365
:100890004354E2E7014DE0E7EC070208010D0204D2
:1008A0002DE9F0410446884616461F4604E0012320
:1008B00088F80030E3B1E46840F28975AC4217D0A3
:1008C0002568002DF7D094F804C036EA0C0CF2D15C
:1008D000637937EA0303EED0A26839463046A84769
:1008E0000028E4D1012F01D00123E1E70023DFE755
:1008F0002046BDE8F08170B504460D46164600E07E
:10090000E468AC4210D02368002BF9D094F804C0FE
:1009100036EA0C0CF4D1627912F0020FF0D1A26821
:10092000022130469847EBE770BD00002DE9F04109
:1009300082B00D4600F0EEF8044601238DF8073032
:10094000022808D0082806D0102804D01A4B1E68A8
:100950001A4B1F6803E0184B1F68184B1E6823468C
:100960002A460DF107013846FFF79AFF80469DF8A9
:10097000073063B930469DF807300BB9012C0ED013
:100980009DF80730B3B1002002B0BDE8F0812346E6
:100990002A460DF107013046FFF782FFEBE72A46B2
:1009A00001463046FFF7A7FF2A4641463846FFF783
:1009B000A2FFE5E70248E7E7A00002089C00020862
:1009C000FF00420008B508460821FFF7AFFF08BD49
:1009D00010B50446FFF7AAFF042C02D0082C17D04C
:1009E00010BD4FF0E0231B6913F0010F04D00E4B34
:1009F0001B7813B1012300E000230C4A1370002B75
:100A0000EED04FF0E022136923F001031361E7E712
:100A1000064B1B78002BE3D04FF0E022136943F024
:100A200001031361DCE700BF3008020890080208E8
:100A300008B50846012902D1044B1B881BB90221C5
:100A4000FFF7C6FF08BD0248FCE700BF2E080208FA
:100A5000FF00420008B508460121FFF7B9FF08BDB5
:100A600038B584468E4615460C4C0FCCCCF80000A9
:100A7000CCF80410CCF80820CCF80C3007CCCCF81B
:100A80001000CCF81410CCF81820CCF800508CF8DA
:100A900004E0604600F088FF38BD00BF88210810E0
:100AA00008B500F0E1FF38B90E4A00210E48FFF703
:100AB000D7FF20B90D4808BD00F0C0FFF4E70C4A8D
:100AC00001210C48FFF7CCFF08B90848F3E70A4AB0
:100AD00002210A48FFF7C4FF08B10020EBE70348F2
:100AE000E9E700BF550A081074080208011A020459
:100AF000310A08103C080208C50908105808020805
:100B0000024600B101BE024B43F82210704700BFFD
:100B100094080208431E072B05D8DFE803F00606F9
:100B200004060404040601BE01207047014B18604E
:100B3000704700BF98080208002800F02A81844608
:100B4000002A00F0288170B5072900D901BE13687A
:100B5000012B00D901BE536833F00F0003D1012BE4
:100B600001D0092B00D101BE137A33F01F0300D04E
:100B700001BED368032B00D901BE1369012B00D934
:100B800001BE5369012B00D901BE136A012B00D9A4
:100B900001BE536A012B00D901BE936A012B00D913
:100BA00001BED36A032B00D901BE136B072B00D9FA
:100BB00001BED369032B00D901BE9369012B00D973
:100BC00001BE01238B404C0010340320A04003439E
:100BD0007248006890F887E05CF80E0020EA030095
:100BE000936903F001038B400343D06900F00300D5
:100BF000A04003434CF80E30107A072900D901BEFB
:100C000030F01F0300D001BE644B1C68A369ACEB3D
:100C10000303DB0964691D0104EB0313032900F2DC
:100C2000A4806359CE004FF01F0E0EFA06FE23EA91
:100C30000E0300F01F00B0400343635153680729BF
:100C400000D901BE33F00F0003D1012B01D0092BD5
:100C500000D101BE4FEA810E5048006890F88550DF
:100C60005CF805000F2404FA0EF420EA040003F0F7
:100C70000F0303FA0EF303434CF80530D368082939
:100C800000D901BE032B00D901BE4FEA410E4348F3
:100C9000006890F884505CF80500032404FA0EF410
:100CA00020EA040003F0030303FA0EF303434CF8B5
:100CB00005301369082900D901BE012B00D901BEF6
:100CC000DCF8180001248C4020EA040003F0010342
:100CD0008B400343CCF818305369072900D901BE73
:100CE000012B00D901BE2D4D286890F886E05CF8F4
:100CF0000E0001248C4020EA040003F001038B4025
:100D000003434CF80E302B6893F888E05CF80E40F3
:100D100024F0FF04136A03F00103506A400000F05E
:100D200002000343906A800000F004000343D06A8D
:100D3000C00000F018000343106B4001C0B2034331
:100D4000880000F47E70834023434CF80E30136813
:100D5000072900D901BE012B00D901BEA3B9012387
:100D60008B40CCF80430002070BD0C1F5D68E4009F
:100D70004FF01F0E0EFA04FE25EA0E0500F01F00CC
:100D8000A0402843586059E701238B40CCF8083035
:100D9000E9E7034870470248704700BF9808020817
:100DA00001005A00A1B91F2A31D8FF2B31D81C49A4
:100DB00009688868B1F87C10084450F8221021F4C2
:100DC0007F411B029BB20B4340F82230002070474A
:100DD000012901D0134870470F2A1CD8B3F5803F72
:100DE0001BD20F4909688868B1F87E10084450F892
:100DF000221021F47F0121F47F411B0223F07F4365
:100E000023F0FF03194340F82210002070470548E3
:100E1000704704487047034870470248704700BF56
:100E20009808020801004A0003292BD809B91F2A93
:100E30000AD9012903D0032904D0154870470F2A85
:100E400002D9F8E7072A1FD8124B1B6893F846C04F
:100E500084451BD900B593F879E001FA0EF14FF003
:100E6000030C0CFA0EFC01EA0C0193F878C00CEAB2
:100E700002029B68114300F5407043F820100020E7
:100E80005DF804FB0248704701487047004870470E
:100E900001004A0098080208032933D809B91F2A1B
:100EA0000AD9012903D0032904D0184870470F2A12
:100EB00002D9F8E7072A27D810B5154B186890F81B
:100EC0007B304FF0030E0EFA03F390F878C090F8E1
:100ED0007A400CFA04F4234390F87940A1400EFACA
:100EE00004FE01EA0E010B430CEA020C816843EA9E
:100EF0000C0242F00042C1F800248368D3F80034A9
:100F0000002010BD014870470048704701004A00AA
:100F100098080208032922D809B91F2A0AD90129E9
:100F200003D0032904D0104870470F2A02D9F8E7EC
:100F3000072A16D80D4B186890F879C001FA0CF101
:100F4000032303FA0CF3194090F8783013408268B9
:100F5000194341F08041C2F8001400207047024854
:100F600070470148704700BF01004A009808020816
:100F700008B513460A4601460020FFF713FF08BDD7
:100F800008B5FFF751FF08BD08B50A460146002025
:100F9000FFF782FF08BD08B50A4601460020FFF7AB
:100FA000B9FF08BD042800D901BE054A136823F41F
:100FB0004073000200F4407003431360704700BFA9
:100FC00000002740072800D901BE054AD2F80035A5
:100FD00023F0070300F007000343C2F80035704711
:100FE00000102640054B1B681968D3F88C208B58DD
:100FF00023F07F4343EA00638B5070479808020850
:10100000054B1B681968D3F890208B5823F47F4355
:1010100043EA00238B50704798080208044B1B6872
:101020001A68D3F89030D058C0F30720704700BF3B
:101030009808020802280FD80F290FD8084A00F58F
:10104000926052F8203023F00F0301F00F010B43A0
:1010500042F820300020704702487047014870472E
:101060000000264001004A00022800D901BE00F518
:101070009260034B53F8200000F00F00704700BF50
:1010800000002640022810D8032910D8094A00F58C
:10109000926052F8203023F03003090101F0300152
:1010A0000B4342F820300020704703487047024845
:1010B000704700BF0000264001004A00022800D906
:1010C00001BE00F59260034B53F82000C0F30110FD
:1010D000704700BF00002640022810D8094A00F5DA
:1010E000926052F8203023F4807381F001010902EC
:1010F00001F480710B4342F8203000207047024811
:10110000704700BF0000264001004A00022801D9B4
:101110000020704700F59260044B53F8203013F420
:10112000807F0CBF01200020704700BF00002640D8
:10113000024B1869C0F38000704700BF00002740D1
:10114000012800D901BE38B9074AD2F8083543F062
:101150000043C2F808357047034AD2F80C3543F013
:101160000043C2F80C35704700102640024650B9C3
:10117000054BD3F8083523F0010301B101221343D5
:10118000014AC2F80835704700102640014B186824
:10119000704700BFA0080208044BD3F8240500F0F4
:1011A0000300032800D070470220FCE7001026400F
:1011B00008B5FFF7F1FF022801D0002008BD014B60
:1011C0001868FBE7A4080208B1F5897F17D2B1F5CA
:1011D000887F02D2022900D901BE03281CD8FF292A
:1011E00011D901F01F010D4B00F1400243F822100C
:1011F00000F59060042243F8202000207047B1F5EC
:101200008A7FE9D1E9E701F0070100F59060034B1F
:1012100043F8201000207047014870470000264026
:1012200001004A000246032800D901BE02F590637E
:10123000074951F8230000F00700042800D0704748
:10124000403251F8220000F01F0040F48070F6E7B1
:101250000000264008B5032800D901BEFFF7E2FFD1
:10126000B0F5887F1DD009D8012817D0022802D1F7
:10127000FFF79EFF01E048BB154808BD40F211137F
:10128000984218D0B0F58A7F06D1124BD3F80835B2
:10129000002B18DB0020F0E70020EEE7FFF776FFD9
:1012A000EBE70C4BD3F80835002B01DB0020E4E71B
:1012B0004FF40040E1E7FFF73BFF08B90020DCE70F
:1012C0004FF40040D9E74FF40040D6E70020D4E7C0
:1012D00000127A0000102640024BD3F83005C00FF0
:1012E000704700BF00102640024BD3F8400500F0C5
:1012F000010070470010264010B5164AD2F8383564
:1013000023F0405343F00053C2F838356424114BA6
:10131000D3F83835C3F30173022B05D024B1012073
:1013200000F06EFA013CF2E70CB90B4810BD012049
:1013300000F066FA074BD3F8302522F00042C3F8DC
:101340003025D3F83C2522F00042C3F83C2500208C
:10135000ECE700BF0010264002004A0010B504462A
:1013600000286DD0FFF7B8FF00286DD12368B3F5D2
:10137000802F00D301BE2368C3F31103E279002A52
:1013800060D04FF080721343304AC2F83035A388E2
:10139000B3F5005F00D301BE2389FF2B00D901BE46
:1013A000A388C3F30C032289120402F47F021343BF
:1013B000264AC2F83435A37A0F2B00D901BEE37A4E
:1013C0000F2B00D901BEA389B3F5005F00D301BE86
:1013D000A37A03F00F03E27A1201D2B21343A18978
:1013E0001B4A02EA01221343A27B120702F0405279
:1013F0001343164AC2F83835A379042B00D901BE2D
:10140000238AB3F5007F00D301BE1049D1F83C35E3
:1014100023F4E063A279120202F4E0621343C1F8FC
:101420003C35D1F83C3523F0FF7323F48033208A18
:10143000084A02EA00421343C1F83C35002010BDBF
:1014400001BE8FE700229EE70348F8E70010264020
:1014500000FF1F000000FF0103004A00034638B3ED
:101460001449D1F83025C2F311001860C2F30062AC
:10147000DA71D1F83425C2F30C009880C2F3074228
:101480001A81D1F8382502F00F009872C2F30310C8
:10149000D872C2F30C209881C2F301729A73D1F80A
:1014A0003C25C2F302219971C2F308421A827047A7
:1014B00001BED5E70010264038B50546214AD2F8CE
:1014C0003C3543F00043C2F83C35044603E00120BC
:1014D00000F096F9013C1B4BD3F8403513F0040F94
:1014E00001D1002CF3D1174AD2F8383523F04053FC
:1014F00043F00053C2F8383505B15CB1114AD2F857
:10150000303543F00043C2F8303503E0012000F0ED
:1015100077F9013CFFF7E8FE08B9002CF6D105B1D8
:101520005CB1084AD2F8383543F04053C2F8383538
:101530000DB12CB10025284638BDFFF7DDFEF7E7D9
:10154000014DF8E70010264002004A0070B586B051
:1015500000230193029303930493059301A8FFF7DB
:101560007DFFFFF7B9FE38B19DF81230022B01D094
:10157000012102E0002100E00021019DBDF80840AA
:1015800020469DF80B3083B1022681B184B1002042
:10159000FFF760FEA0FB0501A4FB06235408001919
:1015A00041F1000100F068FA02E00126EDE70020B9
:1015B00006B070BD034600B101BE03F5B063024A38
:1015C00052F82300C00F704700002640034600B1C8
:1015D00001BE0020086048608860C86008614861FA
:1015E00003F5B063094A52F8233003F07F020A7012
:1015F000C3F304224A70C3F304428A70C3F3C06287
:10160000CA70C3F301730B71704700BF000026401E
:10161000F0B587B0044600B101BE002300930193EA
:10162000029303930493059369462046FFF7CEFF88
:101630002046FFF7BFFF38B19DF80430022B01D0E0
:10164000012202E0002200E000229DF800709DF8D7
:10165000015028469DF802608AB18DB10EB930461E
:101660000EE0601CFFF7F6FDA0FB0701A5FB0623BB
:101670005408001941F1000100F0FEF900E00020DB
:1016800007B0F0BD08B5013800D001BEFFF792FFEA
:1016900008BD08B5034600B901BE581E00D001BE02
:1016A000FFF7B6FF08BD38B50446032800D901BED0
:1016B0002046FFF7CFFD05461CB1012C09D0284676
:1016C00038BDFFF709FE0028F7D0FFF73FFF0546BA
:1016D000F5E72046FFF7D6FF0028F0D02046FFF7B9
:1016E000D8FF0546EBE70000F8B50546FFF7E6FC36
:1016F0000646012303FA00F72846FFF7B5FCFFF77B
:10170000D2FF04462846FFF701FD20B904EB570439
:1017100024FA06F0F8BD0148FCE700BF00127A0089
:1017200010B50020FFF7E0FF0446FFF777FC01301B
:1017300004EB5004B4FBF0F010BD000010B50446FB
:10174000FFF7D2FF022C0DD8084B98420CD8084A5C
:1017500004F5926452F8243043F0004342F82430F8
:10176000002010BD0348FCE70348FAE70068890938
:101770000000264001004A0003004A000139072901
:1017800005D8DFE801F0060E0417040404120B4824
:1017900070470B4B1B787BB90A4B01221A70002053
:1017A00070470020074B18707047064B00221A70D4
:1017B000024870470020704700487047FF00420011
:1017C0009C080208A808020838B504460B4B1B68A1
:1017D0004FF0FF35B5FBF3F506E0084B186805FB45
:1017E00000F0FEF765FF641BAC42F6D8034B1868A7
:1017F00004FB00F0FEF75CFF38BD00BFC006020826
:1018000008B5034B1B7803FB00F0FEF751FF08BD42
:10181000BC060208FEE7000008B50268254B1A6204
:1018200042685A6282689A62C268DA6202691A631E
:1018300042695A6382699A63C269DA631E4A916A8D
:101840001964D16A5964516A9964516BD964926B75
:101850001A65F1EE103A13F0900F28D0026A154B7A
:101860005A65426A9A65826ADA65C26A1A66026BCA
:101870005A66426B9A66826BDA66C26B1A67026CB2
:101880005A67426C9A67826CDA67C26CC3F8802030
:10189000026DC3F88420426DC3F88820826DC3F8BE
:1018A0008C20C26DC3F89020026EC3F89420FFF71D
:1018B000B1FF08BD3007020800ED00E070B4044637
:1018C000002830D019232F4802681668B2F8B050AB
:1018D000725922F003028B422CBF002301231A43CA
:1018E000725102681668B2F8B050725922F4407210
:1018F000725102681568B2F8B2C055F80C2022F097
:101900000302134345F80C3003681868B3F8B2209B
:10191000835823F4407383503CB110291DD92129E9
:1019200024D801221AE06423CDE7164B1B6893F8F4
:1019300059208A421CD293F85A208A421AD293F82C
:101940005B208A4218D293F85C208A4216D293F820
:101950005D308B4214D3042200E000220A490B6858
:1019600023F00F0313430B6070BC70470222F5E7AE
:101970000022F3E70122F1E70222EFE70322EDE77D
:101980000522EBE7980802080000244008B5054A44
:10199000536823F0805353600620FFF731FF002087
:1019A00008BD00BF0010264000283DD00246C36895
:1019B000002B3BD00368002B3AD090F804C01E4B9C
:1019C00053F82C1041B310B40C4600E019464B6993
:1019D0003BB1914205D0187E117E8842F6D81C4654
:1019E000F4E7914226D023694BB1636953611461D6
:1019F00003B11A61626101205DF8044B7047117EEA
:101A0000237E9942F1D254610023136122610A4B73
:101A100043F82C200120EFE7074B43F82C0000236C
:101A20004361036101207047002070470020704728
:101A3000002070470020DFE7AC08020808B5FEF779
:101A400040FE074B9A6807490A4042F468529A6080
:101A50009A680A409A609B68FEF737FE08BD00BF8F
:101A600000102640FF00FC0F024B9868C0F3404076
:101A7000704700BF0010264053B94AB9002908BF7B
:101A800000281CBF4FF0FF314FF0FF3000F070B95D
:101A9000ADF1080C6DE904CE00F006F8DDF804E0C5
:101AA000DDE9022304B070472DE9F047089E0D469A
:101AB00004460F46002B4AD18A42944665D9B2FAB1
:101AC00082F343B102FA03FCC3F120029F4020FAE3
:101AD00002F217439C404FEA1C4E1FFA8CF5B7FBED
:101AE000FEF1220C0EFB117742EA074201FB05F0E2
:101AF00090420AD91CEB020201F1FF3780F01C81F1
:101B0000904240F2198102396244121AA4B2B2FB27
:101B1000FEF00EFB102244EA024400FB05F5A5424C
:101B20000AD91CEB040400F1FF3280F00781A542C2
:101B300040F204816444023840EA0140641B002101
:101B40001EB1DC400023C6E90043BDE8F0878B42AC
:101B500008D9002E00F0ED800021C6E900050846F6
:101B6000BDE8F087B3FA83F1002949D1AB4202D333
:101B7000824200F2F880841A65EB030201201746C6
:101B8000002EE2D0C6E90047DFE702B9FFDEB2FA75
:101B900082F3002B40F090808A1A4FEA1C471FFA0C
:101BA0008CFE0121B2FBF7F507FB1520220C42EA5F
:101BB00000420EFB05F0904208D91CEB020205F131
:101BC000FF3802D2904200F2CB804546121AA4B2EE
:101BD000B2FBF7F007FB102244EA02440EFB00FEC2
:101BE000A64508D91CEB040400F1FF3202D2A64539
:101BF00000F2BB801046A4EB0E0440EA05409FE7CC
:101C0000C1F120078B4022FA07FC4CEA030C05FACD
:101C100001F420FA07F3FD404FEA1C492343B5FBCA
:101C2000F9F81FFA8CFE09FB18551C0C44EA054410
:101C300008FB0EF5A54202FA01F200FA01F00BD9F9
:101C40001CEB040408F1FF3A80F08880A54240F2C2
:101C50008580A8F102086444641B9DB2B4FBF9F3CB
:101C600009FB134445EA044403FB0EFEA64508D9CC
:101C70001CEB040403F1FF356CD2A6456AD9023B84
:101C8000644443EA0843A3FB0295A4EB0E04AC4270
:101C9000C846AE4656D353D056B1B0EB080264EBFB
:101CA0000E0404FA07F7CA40CC401743C6E9007493
:101CB00018460021BDE8F087C3F1200102FA03FCB9
:101CC00020FA01F225FA01F19D402A434FEA1C4710
:101CD0001FFA8CFEB1FBF7F007FB1015110C41EA5F
:101CE000054100FB0EF58D4204FA03F408D91CEB04
:101CF000010100F1FF382FD28D422DD90238614405
:101D0000491B92B2B1FBF7F507FB151142EA0142FC
:101D100005FB0EF1914208D91CEB020205F1FF38D8
:101D200016D2914214D9023D6244521A45EA00414A
:101D300038E73146304608E73946E6E61046FBE626
:101D40004845A9D2B9EB020865EB0C0E013BA3E7AD
:101D50004546EAE72B4694E74046D1E7D0467BE785
:101D6000023D624432E708460AE76444023842E72B
:101D7000704700BF70B50D4D0D4C641BA4100026BC
:101D8000A64209D10B4D0C4C00F02CF8641BA4109A
:101D90000026A64205D170BD55F8043B9847013690
:101DA000EEE755F8043B98470136F2E7A400020835
:101DB000A4000208A4000208A800020838B5074DD4
:101DC000074C641BA4101CB9BDE8384000F010B8E3
:101DD000013C55F824309847F5E700BFA8000208F9
:101DE000AC000208F8B500BFF8BC08BC9E467047BE
:101DF000F8B500BFF8BC08BC9E467047050003005C
:101E000005000000010000000A00000000000000C2
:101E100000000000000000000000000000000000C2
:101E200001000000000000000000000000000000B1
:101E300000000000000000000B050300010000008E
:101E40000A00000000000000000000000000000088
:101E50000000000000000000010000000000000081
:101E60000000000000000000000000000000000072
:101E70000B11000001000000000000000000000045
:101E80000000000000000000000000000000000052
:101E90000100000000000000000000000000000041
:101EA00000000000000000000B150200010000000F
:101EB0000000000000000000000000000000000022
:101EC0000000000000000000010000000000000011
:101ED0000000000000000000000000000000000002
:101EE0000B150300010000000B0000001D000000A6
:101EF00000000000000000000000000000000000E2
:101F000001000000000000000000000000000000D0
:101F100000000000000000000B1705000100000099
:101F20000A0000001D00000000000000000000008A
:101F300000000000000000000100000000000000A0
:101F40000000000000000000000000000000000091
:101F50000B170600010000000A000000000000004E
:101F60000000000000000000000000000000000071
:101F70000100000000000000000000000000000060
:101F800000000000000000000B1707000100000027
:101F9000060000001D00000000000000000000001E
:101FA0000000000000000000010000000000000030
:101FB0000000000000000000000000000000000021
:101FC0000B170400010000000000000000000000EA
:101FD0000000000000000000000000000000000001
:101FE00001000000000000000000000000000000F0
:101FF00000000000000000000B15000001000000C0
:1020000000000000000000000000000000000000D0
:1020100000000000000000000100000000000000BF
:1020200000000000000000000000000000000000B0
:102030000B15010001000000060000000000000078
:102040000000000000000000000000000000000090
:10205000010000000000000000000000000000007F
:1020600000000000000000000B050000010000005F
:10207000060000000000000000000000000000005A
:10208000000000000000000001000000000000004F
:102090000000000000000000000000000000000040
:1020A0000B050100F40100001400040122000905E1
:1020B00008000300630100000400000004010000A8
:1020C00004020000040300000000040000002000DF
:1020D00030003000380039003A003B003C003D0041
:1020E0003F004000410045004600470047004800CF
:1020F00049004C004D004E004F005000510052006E
:102100000000000000005C00000008001000180043
:1021100020002800300038004000480050005800DF
:1021200060006800700078008000880090009800CF
:10213000A000A800B000B8000000000000000000EF
:1021400000003F004B000000000000000000030002
:10215000030003000B000B005E005F005F006300E4
:10216000EB00EB00AB01AB01AB01AB01AB01AC0190
:10217000AC01AE01AE01AE01AE01AF01B701B701D6
:10218000B7010A020A020A02000000000000000073
:1021900000000000340802080000000000000000F9
:1021A0000A00000000002040000024400000004021
:1021B00000000000000023400000304000003140DB
:1021C00000009040000022400000104000009040BD
:1021D000202020202020202020302008085C2C8077
:1021E00000002E00FF03040103007C0040000000FB
:1021F0007FFE000000040000000000000019324BC8
:10220000647D0702020000804000080B10000000FF
:102210000000FF012002001F00800004FF081018CA
:10222000001000140018001C4044484C50000000EE
:102230000810000008000000040000000410000066
:102240000012000004210000002100000016000020
:1022500040114002C41300138013A01340138813CD
:0C226000A81320001C000000000000007B
:08226C003CF8FF7F01000000B7
:1022740000000810000002088000000094220810EA
:08228400800002082C0000009C
:08228C00C8070208F800000079
:102294007D1708100100000000000000E407020898
:1022A4000000000000000000FF000000890700009B
:0C22B40089070000E9000810C1000810B4
:0400000510080111CD
:00000001FF
